:09044600007F027EC7DEFEDFFC30
:01044F00228A
:08020D008F148E138D128C1169
:10021500E4F518F517F516F515F518F517F516F5AE
:1002250015AF14AE13AD12AC11AB18AA17A916A8C9
:1002350015C31200A2501A120446E5182401F51838
:10024500E43517F517E43516F516E43515F515807B
:01025500D0D8
:010256002285
:06042A00C2A58F80D2A7DD
:080430007F027EEFDEFEDFFC1F
:0104380022A1
:0A045000C2A612042AC2A70204305B
:10039F00CFCDCFCECCCE12004D7C007D0A12004DBA
:0403AF00ED2430FF0A
:0A03B300D2A612042AC2A7020430E9
:1003DA00AE07BE0104ED148006BE0209ED243F44B7
:0603EA0080FF1204502206
:1003F0007F381204507F0C1204507F061204507F85
:0404000001020450A1
:0A045A00AC031203DAAF040203B38F
:06037C008B088A09890AC2
:100382001203DAE4FDAB08AA09A90A8D827583007B
:0C03920012000EFF60061203B30D80E99C
:01039E00223C
:0C0349007F0AEA24FFFDE434FFFC7E0084
:080355008E0D8F0E8C0F8D1030
:10035D007F017E00E4FBEBC39510E50F6480F8741C
:0E036D008098500AAC0DAD0E12003B0B80E8DC
:01037B00225F
:0403BD008A0A8B0B12
:1003C1001203DAAA0CEAD39400400D120349AC0AD5
:0803D100AD0B12039F1A80ED31
:0103D9002201
:10029E001203DAC3EA64809480400B7F2B1203B3FF
:1002AE008A1E8B1F800E7F2D1203B3C3E49BF51F96
:1002BE00E49AF51EAA1DEAD39400400D120349AC30
:0902CE001EAD1F12039F1A80ED02
:0102D7002204
:0402D8008A298B2ABA
:1002DC001203DAAA2BEAD3940040297F1012034BA5
:1002EC00AC29AD2ACFCDCFCECCCE12004DEF540FD2
:1002FC00FEC3940AEE5004243080022437FF12030C
:04030C00B31A80D1CF
:0103100022CA
:040311008A2E8B2F76
:100315001203DAAA30EAD394004028EA24FFFDE468
:1003250034FFFC7F027E00120355AC2EAD2FCFCDDE
:10033500CFCECCCE12004DEF54012430FF1203B3C3
:030345001A80D249
:010348002292
:0D04390054696D653A0020203A20203A00F9
:100418000225000001231701243B01223A02200093
:0104280000D3
:100404005389F0758ACD758CD4C28DD28CD2A9D281
:04041400AFC2B92298
:1001BE001203F01204047BFF7A0479397D017F016A
:1001CE0012037C7BFF7A04793F7D017F0212037C50
:1001DE00E523FB7A00750C027D017F021203BDE55B
:1001EE0024FB7A00750C027D047F021203BDE5220A
:0F01FE00FB7A00750C027D077F021203BD80D1D2
:03000B0002025797
:04025700C0E0C0D073
:10025B00758ACD758CD40521E52170020520C394D8
:10026B00E8E520940340277520007521000522E561
:10027B0022943C40197522000524E524943C400E41
:0E028B007524000523E5239418400375230015
:05029900D0D0D0E032DE
:10013F00E4F53120B1197F14FEFDFC12020D30B130
:10014F00FD7F147E007D007C0012020D75310120B1
:10015F00B01C7F147E007D007C0012020D30B0FDBC
:10016F007F147E007D007C0012020D75310220B2DB
:10017F001C7F147E007D007C0012020D30B2FD7FCB
:10018F00147E007D007C0012020D75310320B31C1C
:10019F007F147E007D007C0012020D30B3FD7F14B2
:0E01AF007E007D007C0012020D753104AF3120
:0101BD00221F
:030000000200B348
:0C00B300787FE4F6D8FD7581310200FA78
:10000E00BB010CE58229F582E5833AF583E02250A7
:10001E0006E92582F8E622BBFE06E92582F8E222F1
:0D002E00E58229F582E5833AF583E493220B
:10003B00EF8DF0A4A8F0CF8CF0A428CE8DF0A42ED9
:02004B00FE2293
:10004D00BC000BBE0029EF8DF084FFADF022E4CC97
:10005D00F875F008EF2FFFEE33FEEC33FCEE9DEC60
:10006D00984005FCEE9DFE0FD5F0E9E4CEFD22EDA6
:10007D00F8F5F0EE8420D21CFEADF075F008EF2FF0
:10008D00FFED33FD4007985006D5F0F222C398FDE1
:05009D000FD5F0EA227E
:1000A200EB9FF5F0EA9E42F0E99D42F0E89C45F0B4
:0100B200222B
:1000BF000201BEE493A3F8E493A34003F68001F298
:1000CF0008DFF48029E493A3F85407240CC8C33342
:1000DF00C4540F4420C8834004F456800146F6DF11
:1000EF00E4800B0102040810204080900418E47E85
:1000FF00019360BCA3FF543F30E509541FFEE49306
:10010F00A360010ECF54C025E060A840B8E493A3CC
:10011F00FAE493A3F8E493A3C8C582C8CAC583CAF7
:10012F00F0A3C8C582C8CAC583CADFE9DEE780BEAF
:0104290000D2
:00000001FF
