:0604CD00C2A58F80D2A73A
:0804D3007F027EEFDEFEDFFC7C
:0104DB0022FE
:0A04E800C2A61204CDC2A70204D37D
:10044C00CFCDCFCECCCE1202617C007D0A120261E0
:04045C00ED2430FF5C
:0A046000D2A61204CDC2A70204D3F5
:1004A300AE07BE0104ED148006BE0209ED243F44ED
:0604B30080FF1204E822A4
:1004B9007F381204E87F0C1204E87F061204E87FF3
:0404C900010204E840
:0A04F200AC031204A3AF040204607F
:060429008B098A0A890B11
:10042F001204A3E4FDAB09AA0AA90B8D8275830000
:0C043F00120222FF60061204600D80E92A
:01044B00228E
:0C03F6007F0AEA24FFFDE434FFFC7E00D7
:080402008E0E8F0F8C108D117E
:10040A007F017E00E4FBEBC39511E5106480F8746C
:0E041A008098500AAC0EAD0F12024F0B80E816
:0104280022B1
:04046A008A0B8B0C62
:10046E001204A3AA0DEAD39400400D1203F6AC0BAE
:08047E00AD0C12044C1A80EDD4
:010486002253
:100311001204A3C3EA64809480400B7F2B12046013
:100321008A178B18800E7F2D120460C3E49BF51889
:10033100E49AF517AA16EAD39400400D1203F6AC1D
:0903410017AD1812044C1A80EDEE
:01034A002290
:040385008A1B8B1C28
:100389001204A3AA1DEAD3940040297F101203F88E
:10039900AC1BAD1CCFCDCFCECCCE120261EF540F2A
:1003A900FEC3940AEE5004243080022437FF12045D
:0403B900601A80D175
:0103BD00221D
:0403BE008A208B21E5
:1003C2001204A3AA22EAD394004028EA24FFFDE4FF
:1003D20034FFFC7F027E00120402AC20AD21CFCD9F
:1003E200CFCECCCE120261EF54012430FF12046052
:0303F2001A80D29C
:0103F50022E5
:1004870048656C6C6F2C20576F726C6421004B654C
:0C0497007920507265737365643A200090
:10034B00E4F5081204B97BFF7A0479877D017F01FC
:10035B001204291200038F08E50860F77BFF7A046B
:10036B0079957D017F01120429E508FB7A00750D53
:0A037B00027D0E7F0112046A80D992
:0904FC00007F027EC7DEFEDFFC7A
:0105050022D3
:0802C7008F0D8E0C8D0B8C0ACB
:1002CF00E4F511F510F50FF50EF511F510F50FF525
:1002DF000EAF0DAE0CAD0BAC0AAB11AA10A90FA847
:1002EF000EC31202B6501A1204FCE5112401F511C7
:1002FF00E43510F510E4350FF50FE4350EF50E80EB
:01030F00D01D
:0103100022CA
:10000300E4F5097590FFC29320971B7F14FEFDFC56
:100013001202C73097FD7F147E007D007C00120220
:10002300C7750901806120961E7F147E007D007CC8
:10003300001202C73096FD7F147E007D007C001203
:1000430002C7750905804020951E7F147E007D0040
:100053007C001202C73095FD7F147E007D007C007A
:100063001202C7750909801F20941C7F147E007D2E
:10007300007C001202C73094FD7F147E007D007C5B
:10008300001202C775090D7590FFC29220971E7F5B
:10009300147E007D007C001202C73097FD7F147E22
:1000A300007D007C001202C7750902806120961E44
:1000B3007F147E007D007C001202C73096FD7F1402
:1000C3007E007D007C001202C775090680402095E2
:1000D3001E7F147E007D007C001202C73095FD7FD9
:1000E300147E007D007C001202C775090A801F2060
:1000F300941C7F147E007D007C001202C73094FDA7
:100103007F147E007D007C001202C775090E759076
:10011300FFC29120971E7F147E007D007C00120297
:10012300C73097FD7F147E007D007C001202C775E7
:100133000903806120961E7F147E007D007C0012DF
:1001430002C73096FD7F147E007D007C001202C73B
:10015300750907804020951E7F147E007D007C007A
:100163001202C73095FD7F147E007D007C001202D1
:10017300C775090B801F20941C7F147E007D007CB3
:10018300001202C73094FD7F147E007D007C0012B4
:1001930002C775090F7590FFC29020971E7F147ECA
:1001A300007D007C001202C73097FD7F147E007D26
:1001B300007C001202C7750904806120961E7F141B
:1001C3007E007D007C001202C73096FD7F147E0006
:1001D3007D007C001202C7750908804020951E7FB0
:1001E300147E007D007C001202C73095FD7F147ED3
:1001F300007D007C001202C775090C801F20941C2F
:100203007F147E007D007C001202C73094FD7F14B2
:0E0213007E007D007C001202C7750910AF0945
:0102210022BA
:030000000204DC1B
:0C04DC00787FE4F6D8FD75812202034B06
:10022200BB010CE58229F582E5833AF583E0225091
:1002320006E92582F8E622BBFE06E92582F8E222DB
:0D024200E58229F582E5833AF583E49322F5
:10024F00EF8DF0A4A8F0CF8CF0A428CE8DF0A42EC3
:02025F00FE227D
:10026100BC000BBE0029EF8DF084FFADF022E4CC81
:10027100F875F008EF2FFFEE33FEEC33FCEE9DEC4A
:10028100984005FCEE9DFE0FD5F0E9E4CEFD22ED90
:10029100F8F5F0EE8420D21CFEADF075F008EF2FDA
:1002A100FFED33FD4007985006D5F0F222C398FDCB
:0502B1000FD5F0EA2268
:1002B600EB9FF5F0EA9E42F0E99D42F0E89C45F09E
:0102C6002215
:00000001FF
