:0900BF00007F027EC7DEFEDFFCBB
:0100C8002215
:04009A00AD07AC06FC
:10009E00E4FBFAC3EB9DEA9C500A1200BF0BBB00B7
:0400AE00010A80EFD4
:0100B200222B
:0401010075803F22A4
:0401050075800622D9
:0401090075805B2280
:04010D0075804F2288
:04011100758066226D
:0401150075806D2262
:0401190075807D224E
:04011D0075800722C0
:0401210075807F2244
:0401250075806F2250
:10000300EF7003020101BF0103020105BF020302F6
:100013000109BF030302010DBF0403020111BF0560
:1000230003020115BF0603020119BF070302011DE5
:0D003300BF0803020121BF090312012522AD
:0700C900C2A4C2A3C2A222DF
:0700D000C2A4C2A3D2A222C8
:0700D700C2A4D2A3C2A222C1
:0700DE00C2A4D2A3D2A222AA
:0700E500D2A4C2A3C2A222B3
:0700EC00D2A4C2A3D2A2229C
:0700F300D2A4D2A3C2A22295
:0700FA00D2A4D2A3D2A2227E
:10004000BF01030200C9BF02030200D0BF030302C5
:1000500000D7BF04030200DEBF05030200E5BF06B0
:10006000030200ECBF07030200F3BF08031200FA0B
:01007000226D
:10007100E4F508E4F9E904FF120040E4F508AF08EB
:100081001200037FF47E0112009A0508E508D3945B
:090091000940EB09B908DE80DA30
:030000000200B348
:0C00B300787FE4F6D8FD7581080200712A
:00000001FF
