:09041200007F027EC7DEFEDFFC64
:01041B0022BE
:080219008F0D8E0C8D0B8C0A79
:10022100E4F511F510F50FF50EF511F510F50FF5D3
:100231000EAF0DAE0CAD0BAC0AAB11AA10A90FA8F5
:100241000EC31200A2501A120412E5112401F51175
:10025100E43510F510E4350FF50FE4350EF50E8099
:01026100D0CC
:010262002279
:06040300C2A58F80D2A704
:080409007F027EEFDEFEDFFC46
:0104110022C8
:0A041C00C2A6120403C2A7020409DD
:10038A00CFCDCFCECCCE12004D7C007D0A12004DCF
:04039A00ED2430FF1F
:0A039E00D2A6120403C2A70204094C
:1003C500AE07BE0104ED148006BE0209ED243F44CC
:0603D50080FF12041C224F
:1003DB007F3812041C7F0C12041C7F0612041C7F36
:0403EB000102041CEB
:0A042600AC031203C5AF0402039EED
:060367008B308A3189325F
:10036D001203C5E4FDAB30AA31A9328D827583002D
:0C037D0012000EFF600612039E0D80E9C6
:010389002251
:0C030E007F0AEA24FFFDE434FFFC7E00BF
:08031A008E288F298C2A8D2BFF
:100322007F017E00E4FBEBC3952BE52A6480F87421
:0E0332008098500AAC28AD2912003B0B80E8E1
:01034000229A
:0403A8008A1B8B1C05
:1003AC001203C5AA1DEAD39400400D12030EAC1B18
:0803BC00AD1C12038A1A80ED4A
:0103C4002216
:100263001203C5C3EA64809480400B7F2B12039E64
:100273008A178B18800E7F2D12039EC3E49BF518FB
:10028300E49AF517AA16EAD39400400D12030EACB4
:0902930017AD1812038A1A80ED60
:01029C00223F
:04029D008A208B2107
:1002A1001203C5AA22EAD3940040297F1012031039
:1002B100AC20AD21CFCDCFCECCCE12004DEF540F1F
:1002C100FEC3940AEE5004243080022437FF120347
:0402D1009E1A80D120
:0102D5002206
:0402D6008A258B26C4
:1002DA001203C5AA27EAD394004028EA24FFFDE4C2
:1002EA0034FFFC7F027E0012031AAC25AD26CFCD67
:1002FA00CFCECCCE12004DEF54012430FF12039E14
:03030A001A80D284
:01030D0022CD
:08043000022E0000022C000066
:1003EF005389F0758ACD758CD4C28DD28CD2A9D297
:0403FF00AFC2B922AE
:0603410075A0FE1203EF9F
:1003470012013F8F08E50860F7B40107E4F52EF5C1
:0E0357002F80EDE508B402E8752E00752F0129
:0203650080E036
:03000B000201BE31
:0B01BE00C0E0C0D075D000C000C0073A
:1001C900758ACD758CD4052DE52D7002052CC39447
:1001D900F4E52C94014030752C00752D00E52F6451
:1001E90001452E700FAFA07801EF08800123D8FDDB
:1001F900F5A08013E52F452E700DAFA07801EF080B
:07020900800103D8FDF5A000
:09021000D007D000D0D0D0E032BC
:10013F00E4F50920B1197F14FEFDFC12021930B14C
:10014F00FD7F147E007D007C0012021975090120CD
:10015F00B01C7F147E007D007C0012021930B0FDB0
:10016F007F147E007D007C0012021975090220B2F7
:10017F001C7F147E007D007C0012021930B2FD7FBF
:10018F00147E007D007C0012021975090320B31C38
:10019F007F147E007D007C0012021930B3FD7F14A6
:0E01AF007E007D007C00120219750904AF0964
:0101BD00221F
:030000000200B348
:0C00B300787FE4F6D8FD7581320200FA77
:10000E00BB010CE58229F582E5833AF583E02250A7
:10001E0006E92582F8E622BBFE06E92582F8E222F1
:0D002E00E58229F582E5833AF583E493220B
:10003B00EF8DF0A4A8F0CF8CF0A428CE8DF0A42ED9
:02004B00FE2293
:10004D00BC000BBE0029EF8DF084FFADF022E4CC97
:10005D00F875F008EF2FFFEE33FEEC33FCEE9DEC60
:10006D00984005FCEE9DFE0FD5F0E9E4CEFD22EDA6
:10007D00F8F5F0EE8420D21CFEADF075F008EF2FF0
:10008D00FFED33FD4007985006D5F0F222C398FDE1
:05009D000FD5F0EA227E
:1000A200EB9FF5F0EA9E42F0E99D42F0E89C45F0B4
:0100B200222B
:1000BF00020341E493A3F8E493A34003F68001F213
:1000CF0008DFF48029E493A3F85407240CC8C33342
:1000DF00C4540F4420C8834004F456800146F6DF11
:1000EF00E4800B0102040810204080900430E47E6D
:1000FF00019360BCA3FF543F30E509541FFEE49306
:10010F00A360010ECF54C025E060A840B8E493A3CC
:10011F00FAE493A3F8E493A3C8C582C8CAC583CAF7
:10012F00F0A3C8C582C8CAC583CADFE9DEE780BEAF
:0104380000C3
:00000001FF
