:0901BE00007F027EC7DEFEDFFCBB
:0101C7002215
:08008F008F468E458D448C4321
:10009700E4F54AF549F548F547F54AF549F548F5D0
:1000A70047AF46AE45AD44AC43AB4AAA49A948A8B9
:1000B70047C31201AD501A1201BEE54A2401F54AA1
:1000C700E43549F549E43548F548E43547F54780CF
:0100D700D058
:0100D8002205
:100115002038080000000000000000FF7C1C08FFDC
:100125007F00FF5B49C9C900FC071E1C07FE98003C
:10013500FF414D4D7F007F434342420000000000D8
:0B0145000000000000000000000000AF
:1000D900E4F541F5421201C8E4F540E54125402423
:1000E90008F8E6FDAF401201510540E540C3940808
:1000F90040E90542E542D3940A40DDE4F542054171
:0C010900E541D3943040D1E4F54180CCB6
:10019A008F4BA2B492B4D2B6C2B6A2B492B4D2B6BB
:0301AA00C2B622B8
:0701C800C2B6C2B5C2B422A9
:10017900E4FEC374079EFDEFA805088002C313D8E7
:10018900FC1392B4D2B6C2B60EBE08E6D2B5C2B559
:010199002243
:10015100AE05AC07AF06120179AF047480A8070899
:100161008002C313D8FCF4F5807F017E007D007C02
:080171000012008F7580FF22CF
:03000000020003F8
:0C000300787FE4F6D8FD75814B02004ABE
:1001AD00EB9FF5F0EA9E42F0E99D42F0E89C45F0A8
:0101BD00221F
:10000F000200D9E493A3F8E493A34003F68001F22E
:10001F0008DFF48029E493A3F85407240CC8C333F2
:10002F00C4540F4420C8834004F456800146F6DFC1
:10003F00E4800B0102040810204080900115E47E3B
:10004F00019360BCA3FF543F30E509541FFEE493B6
:10005F00A360010ECF54C025E060A840B8E493A37D
:10006F00FAE493A3F8E493A3C8C582C8CAC583CAA8
:10007F00F0A3C8C582C8CAC583CADFE9DEE780BE60
:0101500000AE
:00000001FF
