:09038C00007F027EC7DEFEDFFCEB
:010395002245
:080127008F0B8E0A8D098C0874
:10012F00E4F50FF50EF50DF50CF50FF50EF50DF5D4
:10013F000CAF0BAE0AAD09AC08AB0FAA0EA90DA8F8
:10014F000CC3120097501A12038CE50F2401F50F00
:10015F00E4350EF50EE4350DF50DE4350CF50C8098
:01016F00D0BF
:01017000226C
:06037100C2A58F80D2A797
:080377007F027EEFDEFEDFFCD9
:01037F00225B
:0A039600C2A6120371C2A70203778A
:1002F900CFCDCFCECCCE1200427C007D0A12004277
:04030900ED2430FFB0
:0A030D00D2A6120371C2A702037703
:10033400AE07BE0104ED148006BE0209ED243F445D
:0603440080FF1203962267
:10034A007F381203967F0C1203967F061203967F5C
:04035A000102039603
:0A03A000AC03120334AF0402030D96
:0602B5008B2A8A2B892C24
:1002BB00120334E4FDAB2AAA2BA92C8D8275830083
:0C02CB00120003FF600612030D0D80E915
:0102D7002204
:0C025A007F0AEA24FFFDE434FFFC7E0074
:080266008E268F278C288D29BC
:10026E007F017E00E4FBEBC39529E5286480F874DA
:0E027E008098500AAC26AD271200300B80E8A5
:01028C00224F
:040317008A198B1A9A
:10031B00120334AA1BEAD39400400D12025AAC19F3
:08032B00AD1A1202F91A80ED6F
:0103330022A7
:1001AF00120334C3EA64809480400B7F2B12030D3B
:1001BF008A158B16800E7F2D12030DC3E49BF51647
:1001CF00E49AF515AA14EAD39400400D12025AAC22
:0901DF0015AD161202F91A80EDAB
:0101E80022F4
:0401E9008A1E8B1FC0
:1001ED00120334AA20EAD3940040297F1012025C36
:1001FD00AC1EAD1FCFCDCFCECCCE120042EF540FE3
:10020D00FEC3940AEE5004243080022437FF1203FB
:04021D000D1A80D165
:0102210022BA
:040222008A238B247C
:10022600120334AA25EAD394004028EA24FFFDE409
:1002360034FFFC7F027E00120266AC23AD24CFCDD4
:10024600CFCECCCE120042EF54012430FF12030D64
:030256001A80D239
:010259002282
:10035E008F2DA2B492B4D2B6C2B6A2B492B4D2B613
:03036E00C2B622F2
:1002D800E4FEC374079EFDEFA805088002C313D887
:1002E800FC1392B4D2B6C2B60EBE08E6D2B5C2B5F9
:0102F80022E3
:10028D00AE05AC07AF061202D8AF047480A80708FC
:10029D008002C313D8FCF4F5807F017E007D007CC5
:0802AD00001201277580FF22F9
:10017100C2B6C2B57D3CE4FF12028D7D427F011201
:10018100028D7DA57F0212028D7D817F0312028D7A
:100191007DA57F0412028D7D997F0512028D7D421E
:0E01A1007F0612028D7D3C7F0712028D80C604
:1000A800E4F52E20B1197F14FEFDFC12012730B1B2
:1000B800FD7F147E007D007C00120127752E012033
:1000C800B01C7F147E007D007C0012012730B0FD3B
:1000D8007F147E007D007C00120127752E0220B25D
:1000E8001C7F147E007D007C0012012730B2FD7F4A
:1000F800147E007D007C00120127752E0320B31C9E
:100108007F147E007D007C0012012730B3FD7F1430
:0E0118007E007D007C00120127752E04AF2EA4
:0101260022B6
:0300000002038078
:0C038000787FE4F6D8FD75812E02017133
:10000300BB010CE58229F582E5833AF583E02250B2
:1000130006E92582F8E622BBFE06E92582F8E222FC
:0D002300E58229F582E5833AF583E4932216
:10003000EF8DF0A4A8F0CF8CF0A428CE8DF0A42EE4
:02004000FE229E
:10004200BC000BBE0029EF8DF084FFADF022E4CCA2
:10005200F875F008EF2FFFEE33FEEC33FCEE9DEC6B
:10006200984005FCEE9DFE0FD5F0E9E4CEFD22EDB1
:10007200F8F5F0EE8420D21CFEADF075F008EF2FFB
:10008200FFED33FD4007985006D5F0F222C398FDEC
:050092000FD5F0EA2289
:10009700EB9FF5F0EA9E42F0E99D42F0E89C45F0BF
:0100A7002236
:00000001FF
