:0908FD00007F027EC7DEFEDFFC75
:0109060022CE
:080638008F0D8E0C8D0B8C0A56
:10064000E4F511F510F50FF50EF511F510F50FF5B0
:100650000EAF0DAE0CAD0BAC0AAB11AA10A90FA8D2
:100660000EC3120420501A1208FDE5112401F511E1
:10067000E43510F510E4350FF50FE4350EF50E8076
:01068000D0A9
:010681002256
:0608EE00C2A58F80D2A715
:0808F4007F027EEFDEFEDFFC57
:0108FC0022D9
:0A090700C2A61208EEC2A70208F40F
:10084900CFCDCFCECCCE1203CB7C007D0A1203CB09
:04085900ED2430FF5B
:0A085D00D2A61208EEC2A70208F4AA
:10089E00AE07BE0104ED148006BE0209ED243F44EE
:0608AE0080FF1209072281
:1008B4007F381209077F0C1209077F061209077F88
:0408C400010209071D
:0A091100AC0312089EAF0402085D5B
:060826008B098A0A890B10
:10082C0012089EE4FDAB09AA0AA90B8D8275830000
:0C083C0012038CFF600612085D0D80E9BD
:01084800228D
:0C07F3007F0AEA24FFFDE434FFFC7E00D6
:0807FF008E108F118C128D1376
:100807007F017E00E4FBEBC39513E5126480F87467
:0E0817008098500AAC10AD111203B90B80E8A6
:0108250022B0
:040867008A0D8B0E5D
:10086B0012089EAA0FEAD39400400D1207F3AC0DA9
:08087B00AD0E1208491A80EDD0
:010883002252
:1007480012089EC3EA64809480400B7F2B12085DD8
:100758008A198B1A800E7F2D12085DC3E49BF51A47
:10076800E49AF519AA18EAD39400400D1207F3ACDD
:0907780019AD1A1208491A80EDAE
:010781002255
:040782008A2A8B2B09
:1007860012089EAA2CEAD3940040297F101207F57E
:10079600AC2AAD2BCFCDCFCECCCE1203CBEF540FA0
:1007A600FEC3940AEE5004243080022437FF120858
:0407B6005D1A80D177
:0107BA00221C
:0407BB008A2F8B30C6
:1007BF0012089EAA31EAD394004028EA24FFFDE4F0
:1007CF0034FFFC7F027E001207FFAC2FAD30CFCD80
:1007DF00CFCECCCE1203CBEF54012430FF12085DE5
:0307EF001A80D29B
:0107F20022E4
:070003002020002D003A004F
:1008840001270001250001240001260002220000A6
:10053C00E51BFB7A00750F027D017F01120867E550
:10054C001CFB7A00750F027D047F01120867E51D04
:10055C00FB7A00750F027D077F01120867E51EFB11
:10056C007A00750F027D017F02120867E51FFB7A86
:10057C0000750F027D047F02120867E520FB7A00EC
:0A058C00750F027D077F0202086769
:06091B0012070A02053C70
:10068200AA1CE51B24D0FFEA64027023EF54037016
:1006920009EF75F06484E5F0700D7E007C017D90B9
:1006A2001203CBED4C70047B1D801C7B1C8018EA6E
:1006B2006404600DEA64066008EA64096003BA0B28
:0906C200047B1E80027B1FAF03C4
:0106CB00220C
:02000E00A90740
:10001000E5241460421460651470030200A7147094
:10002000030200CC1470030200F1240560030201F6
:1000300014851B09E96004050980021509E509D347
:100040009463400DE509B4FF057509638003E4F589
:100050000985091B020114851C09E9600405098052
:10006000021509E509D3940C4003750901E509C39C
:100070009401500375090C85091C020114851D09A2
:100080001206828F0AE9600E0509E509D3950A4038
:1000900011750901800CE509B40105850A09800282
:1000A000150985091D806D851E09E9600405098013
:1000B000021509E509D394174003E4F509E509C3DE
:1000C0009400500375091785091E8048851F09E9AA
:1000D0006004050980021509E509D3943B4003E457
:1000E000F509E509C39400500375093B85091F8094
:1000F00023852009E96004050980021509E509D373
:10010000943B4003E4F509E509C3940050037509E5
:100110003B850920AB1CE51B24D0FFEB6402702556
:10012000EF54037009EF75F06484E5F0700D7E0004
:100130007C017D901203CBED4C7005750A1D801F6C
:10014000750A1C801AEB6404600DEB64066008EB12
:1001500064096003BB0B05750A1E8003750A1FE561
:0C0160001DD3950A4003850A1D02053CD2
:10016C00E525700302023FE52414603314604A1441
:10017C00606514700302020114700302021F24054F
:10018C00600302023FE526600A7BFF7A0079037D5B
:10019C00018032E51BFB7A00750F027D018034E58E
:1001AC0026600A7BFF7A0079037D048018E51CFB2E
:1001BC007A00750F027D04801AE526600C7BFF7AAD
:1001CC000079037D077F018058E51DFB7A00750FD0
:1001DC00027D077F018059E526600C7BFF7A007950
:1001EC00037D017F02803AE51EFB7A00750F027DCC
:1001FC00017F02803BE526600C7BFF7A0079037D52
:10020C00047F02801CE51FFB7A00750F027D047FC2
:10021C0002801DE526600D7BFF7A0079037D077F48
:10022C0002020826E520FB7A00750F027D077F028B
:04023C00120867221B
:100240001208B41209211208C87BFF7A0079067DD2
:10025000037F011208267BFF7A0079067D067F0165
:100260001208267BFF7A0079087D037F0212082698
:100270007BFF7A0079087D067F021208261202E7CA
:100280001204BD8F08E5256401703DE50824FE6079
:100290001614601714601B24037038E4F525F52448
:1002A000F5261202E7802CE4FF80027F0112000E87
:1002B0008021E5242401FFE433FE7C007D06120347
:1002C000CB8D2412053C800BE508B4010375250194
:1002D00012091B12016CE526FB7A00750F017D0ADD
:0702E0007F021208678099FC
:03000B000206CC1E
:0906CC00C0E0C0D075D000C007E9
:1006D500758ACD758CD40523E52370020522C39454
:1006E500F4E52294014017752200752300E525B431
:0E06F500010CE52670047F0180027F008F2635
:07070300D007D0D0D0E03296
:1004BD00E4F50920B1197F14FEFDFC12063830B1A8
:1004CD00FD7F147E007D007C001206387509012029
:1004DD00B01C7F147E007D007C0012063830B0FD0C
:1004ED007F147E007D007C0012063875090220B253
:1004FD001C7F147E007D007C0012063830B2FD7F1B
:10050D00147E007D007C0012063875090320B31C93
:10051D007F147E007D007C0012063830B3FD7F1401
:0E052D007E007D007C00120638750904AF09BF
:01053B00229D
:1008C8005389F0758ACD758CD4C28DD28CD2A9D2B9
:0408D800AFC2B922D0
:09089400071B1A02150F0D3706AF
:05092100C2B5C2B622C0
:0305960025F0FD50
:02059900A907B0
:10059B00D2B5E4FB74017E00A803088005C333CEFB
:1005AB0033CED8F9FFE9F582EF558224FF92B4D20E
:1005BB00B6C2B60BBB08DDE4FB74017E00A80308D2
:1005CB008005C333CE33CED8F9FFEDF582EF5582DC
:0E05DB0024FF92B4D2B6C2B60BBB08DDC2B587
:0105E90022EF
:0205EA00AD075B
:1005EC00E4F9430501D2B5FB74017E00A803088031
:1005FC0005C333CE33CED8F9FFEDF582EF55822407
:10060C00FF92B4C2B6D2B60BBB08DDE4FBD2B6C2C5
:10061C00B630B40D7401A803088002C333D8FC4271
:0B062C00010BBB08E8C2B5C2B4AF016F
:0106370022A0
:1002E700E4FD7F8E120599E51B75F00A84C454F06E
:1002F700FFE51B75F00A84EF7F8C120596E51C75E8
:10030700F00A84C454F0FFE51C75F00A84EF7F8877
:10031700120596E51D75F00A84C454F0FFE51D75B6
:10032700F00A84EF25F0FD7F86120599E51E75F02A
:100337000A84C454F0FFE51E75F00A84EF25F0FD2A
:100347007F84120599E51F75F00A84C454F0FFE510
:100357001F75F00A84EF25F0FD7F82120599E520CD
:1003670075F00A84C454F0FFE52075F00A84EF2580
:10037700F0FD7F80120599AD217F8A1205997D8056
:050387007F8E020599C4
:0308DC001205EA18
:0F08DF00EFC4540F75F00AA4FEEF540F2EFF2242
:10070A007F8C1208DC8F1B7F881208DC8F1C7F8687
:10071A001205EA1208DF8F1D7F841205EA1208DF2C
:10072A008F1E7F821205EA1208DF8F1F7F80120553
:0E073A00EA1208DF8F207F8A1205EA8F212243
:03000000020431C6
:0C043100787FE4F6D8FD75813102047874
:10038C00BB010CE58229F582E5833AF583E0225026
:10039C0006E92582F8E622BBFE06E92582F8E22270
:0D03AC00E58229F582E5833AF583E493228A
:1003B900EF8DF0A4A8F0CF8CF0A428CE8DF0A42E58
:0203C900FE2212
:1003CB00BC000BBE0029EF8DF084FFADF022E4CC16
:1003DB00F875F008EF2FFFEE33FEEC33FCEE9DECDF
:1003EB00984005FCEE9DFE0FD5F0E9E4CEFD22ED25
:1003FB00F8F5F0EE8420D21CFEADF075F008EF2F6F
:10040B00FFED33FD4007985006D5F0F222C398FD5F
:05041B000FD5F0EA22FC
:10042000EB9FF5F0EA9E42F0E99D42F0E89C45F032
:0104300022A9
:10043D00020240E493A3F8E493A34003F68001F293
:10044D0008DFF48029E493A3F85407240CC8C333C0
:10045D00C4540F4420C8834004F456800146F6DF8F
:10046D00E4800B0102040810204080900884E47E93
:10047D00019360BCA3FF543F30E509541FFEE49384
:10048D00A360010ECF54C025E060A840B8E493A34B
:10049D00FAE493A3F8E493A3C8C582C8CAC583CA76
:1004AD00F0A3C8C582C8CAC583CADFE9DEE780BE2E
:01089D00005A
:00000001FF
