:0905B100007F027EC7DEFEDFFCC4
:0105BA00221E
:0803B9008F118E108D0F8C0EC8
:1003C100E4F515F514F513F512F515F514F513F516
:1003D10012AF11AE10AD0FAC0EAB15AA14A913A834
:1003E10012C31203A8501A1205B1E5152401F5151F
:1003F100E43514F514E43513F513E43512F51280E0
:01040100D02A
:0104020022D7
:06059600C2A58F80D2A770
:08059C007F027EEFDEFEDFFCB2
:0105A4002234
:0A05BB00C2A6120596C2A702059C15
:10053100CFCDCFCECCCE1203537C007D0A12035314
:04054100ED2430FF76
:0A054500D2A6120596C2A702059C7B
:10056C00AE07BE0104ED148006BE0209ED243F4423
:06057C0080FF1205BB2206
:100582007F381205BB7F0C1205BB7F061205BB7FAD
:04059200010205BBA2
:0A05C500AC0312056CAF04020545FB
:06050E008B0D8A0E890F1F
:1005140012056CE4FDAB0DAA0EA90F8D8275830044
:0C052400120314FF60061205450D80E96B
:0105300022A8
:0C04AE007F0AEA24FFFDE434FFFC7E001E
:0804BA008E128F138C148D15B6
:1004C2007F017E00E4FBEBC39515E5146480F874AC
:0E04D2008098500AAC12AD131203410B80E863
:0104E00022F9
:04054F008A0F8B1074
:1005530012056CAA11EAD39400400D1204AEAC0F3D
:08056300AD101205311A80ED04
:01056B00226D
:1004030012056CC3EA64809480400B7F2B12054570
:100413008A1B8B1C800E7F2D120545C3E49BF51CA4
:10042300E49AF51BAA1AEAD39400400D1204AEAC69
:090433001BAD1C1205311A80ED0D
:01043C00229D
:04043D008A1F8B2067
:1004410012056CAA21EAD3940040297F101204B04E
:10045100AC1FAD20CFCDCFCECCCE120353EF540F76
:10046100FEC3940AEE5004243080022437FF1205A3
:04047100451A80D1D7
:010475002264
:040476008A248B2524
:10047A0012056CAA26EAD394004028EA24FFFDE478
:10048A0034FFFC7F027E001204BAAC24AD25CFCD26
:10049A00CFCECCCE120353EF54012430FF120545C0
:0304AA001A80D2E3
:0104AD00222C
:1004E10050617373776F72643A2000436F72726563
:1004F100637421002020202020202020200057721A
:0D0501006F6E6721002020202020202000A8
:10022200750825750937E4F50AF50BF50C120582F8
:100232007BFF7A0479E17D017F0112050E12000332
:100242008F0CE50C60F7D3940A502EAE0AAF0B7CEC
:10025200037DE8120353EF4E701FAE0AAF0BFC7D15
:100262000A1203418E0A8F0BE50C75F00A84E5F041
:10027200250BF50BE4350AF50A751104AB0BAA0A36
:100282007D017F0212054FE50C640B7067E50B657B
:10029200097004E50A65087BFF70237A0479EC7D16
:1002A200017F0212050E7FF47E017D007C001203A5
:1002B200B9E4F50AF50B7BFF7A0479F580217A041B
:1002C20079FF7D017F0212050E7FF47E017D007CA5
:1002D200001203B9E4F50AF50B7BFF7A0579067D76
:1002E200017F0212050E751104AB0BAA0A7D017F74
:1002F2000212054FE50C640C600302023FF50AF599
:100302000B751104AB0BAA0A7D017F0212054F0285
:02031200023FA8
:10000300E4F50D7590FFC29320971B7F14FEFDFC52
:100013001203B93097FD7F147E007D007C0012032C
:10002300B9750D01806120961E7F147E007D007CD2
:10003300001203B93096FD7F147E007D007C001210
:1000430003B9750D05804020951E7F147E007D0049
:100053007C001203B93095FD7F147E007D007C0087
:100063001203B9750D09801F20941C7F147E007D37
:10007300007C001203B93094FD7F147E007D007C68
:10008300001203B9750D0D7590FFC29220971E7F64
:10009300147E007D007C001203B93097FD7F147E2F
:1000A300007D007C001203B9750D02806120961E4D
:1000B3007F147E007D007C001203B93096FD7F140F
:1000C3007E007D007C001203B9750D0680402095EB
:1000D3001E7F147E007D007C001203B93095FD7FE6
:1000E300147E007D007C001203B9750D0A801F2069
:1000F300941C7F147E007D007C001203B93094FDB4
:100103007F147E007D007C001203B9750D0E75907F
:10011300FFC29120971E7F147E007D007C00120396
:10012300B93097FD7F147E007D007C001203B97502
:100133000D03806120961E7F147E007D007C0012DB
:1001430003B93096FD7F147E007D007C001203B955
:10015300750D07804020951E7F147E007D007C0076
:100163001203B93095FD7F147E007D007C001203DD
:10017300B9750D0B801F20941C7F147E007D007CBD
:10018300001203B93094FD7F147E007D007C0012C1
:1001930003B9750D0F7590FFC29020971E7F147ED3
:1001A300007D007C001203B93097FD7F147E007D33
:1001B300007C001203B9750D04806120961E7F1424
:1001C3007E007D007C001203B93096FD7F147E0013
:1001D3007D007C001203B9750D08804020951E7FB9
:1001E300147E007D007C001203B93095FD7F147EE0
:1001F300007D007C001203B9750D0C801F20941C38
:100203007F147E007D007C001203B93094FD7F14BF
:0E0213007E007D007C001203B9750D10AF0D4A
:0102210022BA
:030000000205A551
:0C05A500787FE4F6D8FD75812602022262
:10031400BB010CE58229F582E5833AF583E022509E
:1003240006E92582F8E622BBFE06E92582F8E222E8
:0D033400E58229F582E5833AF583E4932202
:10034100EF8DF0A4A8F0CF8CF0A428CE8DF0A42ED0
:02035100FE228A
:10035300BC000BBE0029EF8DF084FFADF022E4CC8E
:10036300F875F008EF2FFFEE33FEEC33FCEE9DEC57
:10037300984005FCEE9DFE0FD5F0E9E4CEFD22ED9D
:10038300F8F5F0EE8420D21CFEADF075F008EF2FE7
:10039300FFED33FD4007985006D5F0F222C398FDD8
:0503A3000FD5F0EA2275
:1003A800EB9FF5F0EA9E42F0E99D42F0E89C45F0AB
:0103B8002222
:00000001FF
