:09007900007F027EC7DEFEDFFC01
:01008200225B
:040050007F147E009B
:04005400AD07AC0642
:10005800E4FBFAC3EB9DEA9C500A1200790BBB0043
:04006800010A80EF1A
:01006C002271
:10000300E4F975A0FE20B02012005030B0FD1200BC
:100013005009E9C394084002E4F97401A801088077
:1000230002C333D8FCF4F5A020B1DA12005030B18A
:10003300FD120050E9D3940050027908197401A805
:0D00430001088002C333D8FCF4F5A080B89A
:0300000002006D8E
:0C006D00787FE4F6D8FD758107020003DF
:00000001FF
