:1000D5001008007F00BF00DF00EF00F700FB00FD08
:0200E50000FE1B
:0900E800007F027EC7DEFEDFFC92
:0100F10022EC
:0400BC00AD07AC06DA
:1000C000E4FBFAC3EB9DEA9C500A1200E80BBB006C
:0400D000010A80EFB2
:0100D4002209
:10008F00E4F583F582AF82EF25E02408F808E6F562
:10009F00A07FF47E011200BC75A0FF7FF47E0112D9
:0D00AF0000BCA3E5826408458370DA80D3AD
:03000000020003F8
:0C000300787FE4F6D8FD75811702004AF2
:10000F0002008FE493A3F8E493A34003F68001F278
:10001F0008DFF48029E493A3F85407240CC8C333F2
:10002F00C4540F4420C8834004F456800146F6DFC1
:10003F00E4800B01020408102040809000D5E47E7C
:10004F00019360BCA3FF543F30E509541FFEE493B6
:10005F00A360010ECF54C025E060A840B8E493A37D
:10006F00FAE493A3F8E493A3C8C582C8CAC583CAA8
:10007F00F0A3C8C582C8CAC583CADFE9DEE780BE60
:0100E7000018
:00000001FF
