:080452000000000000000000A2
:1001D800E4F50BF50AF509F508780C7C00FD7BFFC2
:1001E8007A047952FE7F081200D3E4F517F516F564
:1001F80015F514F518F519F51AC3E51A940AE51951
:1002080094004062E4F519F51AE50B2401F50BE4B6
:10021800350AF50AE43509F509E43508F508850BCA
:1002280017850A16850915F514E4F518E47B0AFA0A
:10023800F9F8AF17AE16AD15AC14120135AF03744B
:100248000C2518F8A607AF17AE16AD15AC14E47B4D
:100258000AFAF9F81201358F178E168D158C1405C8
:1002680018E518B408C6E4F518E51804FF740C2559
:1002780018F8E6FD12042B0518E518C3940840E9A0
:0B028800051AE51A70020519020201B8
:09044800007F027EC7DEFEDFFC2E
:010451002288
:080373008F2E8E2D8D2C8C2B9A
:10037B00E4F532F531F530F52FF532F531F530F591
:10038B002FAF2EAE2DAD2CAC2BAB32AA31A930A892
:10039B002FC31201C7501A120448E5322401F5325B
:1003AB00E43531F531E43530F530E4352FF52F8078
:0103BB00D071
:0103BC00221E
:0404920075803F2210
:040496007580062245
:04049A0075805B22EC
:04049E0075804F22F4
:0404A20075806622D9
:0404A60075806D22CE
:0404AA0075807D22BA
:0404AE00758007222C
:0404B20075807F22B0
:0404B60075806F22BC
:1003BD00EF7003020492BF0103020496BF02030211
:1003CD00049ABF030302049EBF04030204A2BF05E7
:1003DD00030204A6BF06030204AABF07030204AE6C
:0D03ED00BF08030204B2BF09031204B622C8
:07045A00C2A4C2A3C2A2224A
:07046100C2A4C2A3D2A22233
:07046800C2A4D2A3C2A2222C
:07046F00C2A4D2A3D2A22215
:07047600D2A4C2A3C2A2221E
:07047D00D2A4C2A3D2A22207
:07048400D2A4D2A3C2A22200
:07048B00D2A4D2A3D2A222E9
:1003FA00BF010302045ABF0203020461BF030302DE
:10040A000468BF040302046FBF0503020476BF0633
:10041A000302047DBF0703020484BF080312048B8E
:01042A0022AF
:10042B00AE051203FAAF061203BD120448E4F580C1
:01043B00229E
:080321008F368E358D348C33CC
:10032900E4F537FFFEFDFCAB36AA35A934A833C383
:100339001201C77002FF22E4FFFEFDFCAB36AA35AD
:10034900A934A833C31201C7601DAF36AE35AD3429
:10035900AC33E47B0AFAF9F81201358F368E358D04
:09036900348C33053780D0AF3726
:010372002268
:080293008F1E8E1D8D1C8C1BBB
:10029B001203218F1FE4F523F522F521F520F52715
:1002AB00F526F525F524F528F529F52AE51F6065D2
:1002BB00E4F52A851E27851D26851C25851B24E430
:1002CB00F529E529C3951F5043E47B0AFAF9F8AFEA
:1002DB0027AE26AD25AC24120135AF038F28E47B66
:1002EB000AFAF9F8AF27AE26AD25AC241201358FEB
:1002FB00238E228D218C208F278E268D258C24E515
:10030B002904FFAD2812042B052980B6052AE52AFE
:05031B00C3940A409E9E
:0103200022BA
:0300000002043CBB
:0C043C00787FE4F6D8FD7581370201D806
:10000300E709F608DFFA8046E709F208DFFA803EDF
:1000130088828C83E709F0A3DFFA8032E309F608CC
:10002300DFFA8078E309F208DFFA807088828C8334
:10003300E309F0A3DFFA806489828A83E0A3F608E8
:10004300DFFA805889828A83E0A3F208DFFA804CC2
:1000530080D280FA80C680D4806980F28033801099
:1000630080A680EA809A80A880DA80E280CA803302
:1000730089828A83ECFAE493A3C8C582C8CCC5837A
:10008300CCF0A3C8C582C8CCC583CCDFE9DEE7804A
:100093000D89828A83E493A3F608DFF9ECFAA9F0C9
:1000A300EDFB2289828A83ECFAE0A3C8C582C8CC1F
:1000B300C583CCF0A3C8C582C8CCC583CCDFEADE38
:1000C300E880DB89828A83E493A3F208DFF980CC9A
:1000D30088F0EF60010E4E60C388F0ED2402B40493
:1000E3000050B9F582EB2402B4040050AF2323453A
:0600F3008223900053730C
:1000F90075F008758200EF2FFFEE33FECD33CDCCBE
:1001090033CCC58233C5829BED9AEC99E582984040
:100119000CF582EE9BFEED9AFDEC99FC0FD5F0D61D
:10012900E4CEFBE4CDFAE4CCF9A88222B800C1B947
:100139000059BA002DEC8BF084CFCECDFCE5F0CB85
:10014900F97818EF2FFFEE33FEED33FDEC33FCEBBE
:1001590033FB10D703994004EB99FB0FD8E5E4F979
:10016900FA227818EF2FFFEE33FEED33FDEC33FC66
:10017900C933C910D7059BE99A4007EC9BFCE99A5A
:10018900F90FD8E0E4C9FAE4CCFB2275F010EF2F9F
:10019900FFEE33FEED33FDCC33CCC833C810D7079F
:1001A9009BEC9AE899400AED9BFDEC9AFCE899F8DA
:0E01B9000FD5F0DAE4CDFBE4CCFAE4C8F9226D
:1001C700EB9FF5F0EA9E42F0E99D42F0E89C45F08E
:0101D7002205
:00000001FF
