:03000000020003F8
:0C000300787FE4F6D8FD75811702004AF2
:1000BF001008007F00BF00DF00EF00F700FB00FD1E
:0200CF0000FE31
:0900D200007F027EC7DEFEDFFCA8
:0100DB002202
:04008F00AD07AC0607
:10009300E4FBFAC3EB9DEA9C500A1200D20BBB00AF
:0400A300010A80EFDF
:0100A7002236
:1000A800E4FFC2A0EF24FFB392A020B1047E018038
:0700B800027E00AF0680ED9F
:10000F000200A8E493A3F8E493A34003F68001F25F
:10001F0008DFF48029E493A3F85407240CC8C333F2
:10002F00C4540F4420C8834004F456800146F6DFC1
:10003F00E4800B01020408102040809000BFE47E92
:10004F00019360BCA3FF543F30E509541FFEE493B6
:10005F00A360010ECF54C025E060A840B8E493A37D
:10006F00FAE493A3F8E493A3C8C582C8CAC583CAA8
:10007F00F0A3C8C582C8CAC583CADFE9DEE780BE60
:0100D100002E
:00000001FF
