:0902BA00007F027EC7DEFEDFFCBE
:0102C3002218
:0801AC008F0F8E0E8D0D8C0CDF
:1001B400E4F513F512F511F510F513F512F511F533
:1001C40010AF0FAE0EAD0DAC0CAB13AA12A911A853
:1001D40010C31200D1501A1202BAE5132401F51308
:1001E400E43512F512E43511F511E43510F51080FB
:0101F400D03A
:0101F50022E7
:0402FC0075803F22A8
:0403000075800622DC
:0403040075805B2283
:0403080075804F228B
:04030C007580662270
:0403100075806D2265
:0403140075807D2251
:0403180075800722C3
:04031C0075807F2247
:0403200075806F2253
:1001F600EF70030202FCBF0103020300BF02030209
:100206000304BF0303020308BF040302030CBF0574
:1002160003020310BF0603020314BF0703020318F9
:0D022600BF080302031CBF090312032022BE
:0702C400C2A4C2A3C2A222E2
:0702CB00C2A4C2A3D2A222CB
:0702D200C2A4D2A3C2A222C4
:0702D900C2A4D2A3D2A222AD
:0702E000D2A4C2A3C2A222B6
:0702E700D2A4C2A3D2A2229F
:0702EE00D2A4D2A3C2A22298
:0702F500D2A4D2A3D2A22281
:10026900BF01030202C4BF02030202CBBF030302A0
:1002790002D2BF04030202D9BF05030202E0BF068E
:10028900030202E7BF07030202EEBF08031202F5E9
:010299002242
:10029A00120269AF051201F61202BAEB6401600399
:0402AA00E4F58022D5
:08015A008F1A8E198D188C1705
:10016200E4F51BFFFEFDFCAB1AAA19A918A817C3D8
:100172001200D17002FF22E4FFFEFDFCAB1AAA19A5
:10018200A918A817C31200D1601DAF1AAE19AD1875
:10019200AC17E47B0AFAF9F812003F8F1A8E198D18
:0901A200188C17051B80D0AF1B5F
:0101AB002231
:0800E2008F0F8E0E8D0D8C0CAA
:1000EA0012015A8F10E4F514F513F512F511F515EE
:1000FA00F516E5106059E4F516E516C39510504F4C
:10010A00E47B0AFAF9F8AF0FAE0EAD0DAC0C120093
:10011A003FAF038F15E47B0AFAF9F8AF0FAE0EADC5
:10012A000DAC0C12003F8F148E138D128C118F0F91
:10013A008E0E8D0D8C0CE51604FFE51014B5160411
:0F014A007B0180027B00AD1512029A051680AA78
:010159002283
:10023300E4F50BF50AF509F508AF0BAE0AAD09AC09
:10024300081200E2E50B2401F50BE4350AF50AE494
:100253003509F509E43508F5087F647E007D007CE7
:06026300001201AC80D383
:030000000202AE4B
:0C02AE00787FE4F6D8FD75811B02023356
:1000030075F008758200EF2FFFEE33FECD33CDCCB4
:1000130033CCC58233C5829BED9AEC99E582984037
:100023000CF582EE9BFEED9AFDEC99FC0FD5F0D614
:10003300E4CEFBE4CDFAE4CCF9A88222B800C1B93E
:100043000059BA002DEC8BF084CFCECDFCE5F0CB7C
:10005300F97818EF2FFFEE33FEED33FDEC33FCEBB5
:1000630033FB10D703994004EB99FB0FD8E5E4F970
:10007300FA227818EF2FFFEE33FEED33FDEC33FC5D
:10008300C933C910D7059BE99A4007EC9BFCE99A51
:10009300F90FD8E0E4C9FAE4CCFB2275F010EF2F96
:1000A300FFEE33FEED33FDCC33CCC833C810D70796
:1000B3009BEC9AE899400AED9BFDEC9AFCE899F8D1
:0E00C3000FD5F0DAE4CDFBE4CCFAE4C8F92264
:1000D100EB9FF5F0EA9E42F0E99D42F0E89C45F085
:0100E10022FC
:00000001FF
