:0905A500007F027EC7DEFEDFFCD0
:0105AE00222A
:080396008F148E138D128C11DF
:10039E00E4F518F517F516F515F518F517F516F524
:1003AE0015AF14AE13AD12AC11AB18AA17A916A83F
:1003BE0015C312013C501A1205A5E5182401F518B3
:1003CE00E43517F517E43516F516E43515F51580F1
:0103DE00D04E
:0103DF0022FB
:06059600C2A58F80D2A770
:08059C007F027EEFDEFEDFFCB2
:0105A4002234
:0A05AF00C2A6120596C2A702059C21
:10051F00CFCDCFCECCCE1200E77C007D0A1200E704
:04052F00ED2430FF88
:0A053300D2A6120596C2A702059C8D
:10055A00AE07BE0104ED148006BE0209ED243F4435
:06056A0080FF1205AF2224
:100570007F381205AF7F0C1205AF7F061205AF7FE3
:04058000010205AFC0
:0A05B900AC0312055AAF040205332B
:0604FC008B088A09890A41
:1005020012055AE4FDAB08AA09A90A8D8275830077
:0C0512001200A8FF60061205330D80E9FE
:01051E0022BA
:0C04C9007F0AEA24FFFDE434FFFC7E0003
:0804D5008E0D8F0E8C0F8D10AF
:1004DD007F017E00E4FBEBC39510E50F6480F8749B
:0E04ED008098500AAC0DAD0E1200D50B80E8C1
:0104FB0022DE
:04053D008A0A8B0B90
:1005410012055AAA0CEAD39400400D1204C9AC0A50
:08055100AD0B12051F1A80ED2D
:01055900227F
:10041E0012055AC3EA64809480400B7F2B12053379
:10042E008A1E8B1F800E7F2D120533C3E49BF51F92
:10043E00E49AF51EAA1DEAD39400400D1204C9AC2D
:09044E001EAD1F12051F1A80EDFE
:010457002282
:040458008A298B2A38
:10045C0012055AAA2BEAD3940040297F101204CB20
:10046C00AC29AD2ACFCDCFCECCCE1200E7EF540FB6
:10047C00FEC3940AEE5004243080022437FF120588
:04048C00331A80D1CE
:010490002249
:040491008A2E8B2FF5
:1004950012055AAA30EAD394004028EA24FFFDE465
:1004A50034FFFC7F027E001204D5AC2EAD2FCFCDDC
:1004B500CFCECCCE1200E7EF54012430FF12053326
:0304C5001A80D2C8
:0104C8002211
:0405D2003A002D00BE
:10014D001205701205CD7BFF7A0579D27D037F01F3
:10015D001204FC7BFF7A0579D27D067F011204FC27
:10016D007BFF7A0579D47D037F021204FC7BFF7A35
:10017D000579D47D067F021204FC1200031203E000
:10018D00E520FB7A00750C027D017F0112053DE52E
:10019D0021FB7A00750C027D047F0112053DE522DD
:1001AD00FB7A00750C027D077F0112053DE523FBEF
:1001BD007A00750C027D017F0212053DE524FB7A64
:1001CD0000750C027D047F0212053DE525FB7A00CA
:0C01DD00750C027D077F0212053D80A119
:10027500E4F53120B1197F14FEFDFC12039630B16F
:10028500FD7F147E007D007C0012039675310120F0
:10029500B01C7F147E007D007C0012039630B0FDFB
:1002A5007F147E007D007C0012039675310220B21A
:1002B5001C7F147E007D007C0012039630B2FD7F0A
:1002C500147E007D007C0012039675310320B31C5B
:1002D5007F147E007D007C0012039630B3FD7F14F1
:0E02E5007E007D007C00120396753104AF315F
:0102F30022E8
:0905C30007201A02150F0D37067E
:0505CD00C2B5C2B62218
:0302F40025F0FDF5
:0202F700A90755
:1002F900D2B5E4FB74017E00A803088005C333CEA0
:1003090033CED8F9FFE9F582EF558224FF92B4D2B2
:10031900B6C2B60BBB08DDE4FB74017E00A8030876
:100329008005C333CE33CED8F9FFEDF582EF558280
:0E03390024FF92B4D2B6C2B60BBB08DDC2B52B
:010347002293
:02034800AD07FF
:10034A00E4F9430501D2B5FB74017E00A8030880D5
:10035A0005C333CE33CED8F9FFEDF582EF558224AB
:10036A00FF92B4C2B6D2B60BBB08DDE4FBD2B6C26A
:10037A00B630B40D7401A803088002C333D8FC4216
:0B038A00010BBB08E8C2B5C2B4AF0114
:010395002245
:10000300E4FD7F8E1202F7E52075F00A84C454F0F4
:10001300FFE52075F00A84EF7F8C1202F4E5217569
:10002300F00A84C454F0FFE52175F00A84EF7F8859
:100033001202F4E52275F00A84C454F0FFE5227538
:10004300F00A84EF25F0FD7F861202F7E52375F0B1
:100053000A84C454F0FFE52375F00A84EF25F0FD0C
:100063007F841202F7E52475F00A84C454F0FFE597
:100073002475F00A84EF25F0FD7F821202F7E5254F
:1000830075F00A84C454F0FFE52575F00A84EF2562
:10009300F0FD7F801202F7AD267F8A1202F77D8082
:0500A3007F8E0202F750
:0305840012034817
:0F058700EFC4540F75F00AA4FEEF540F2EFF229D
:1003E0007F8C1205848F207F881205848F217F8661
:1003F0001203481205878F227F8412034812058753
:100400008F237F821203481205878F247F80120377
:0E041000481205878F257F8A1203488F262207
:030000000201E911
:0C01E900787FE4F6D8FD75813102023009
:1000A800BB010CE58229F582E5833AF583E022500D
:1000B80006E92582F8E622BBFE06E92582F8E22257
:0D00C800E58229F582E5833AF583E4932271
:1000D500EF8DF0A4A8F0CF8CF0A428CE8DF0A42E3F
:0200E500FE22F9
:1000E700BC000BBE0029EF8DF084FFADF022E4CCFD
:1000F700F875F008EF2FFFEE33FEEC33FCEE9DECC6
:10010700984005FCEE9DFE0FD5F0E9E4CEFD22ED0B
:10011700F8F5F0EE8420D21CFEADF075F008EF2F55
:10012700FFED33FD4007985006D5F0F222C398FD46
:050137000FD5F0EA22E3
:10013C00EB9FF5F0EA9E42F0E99D42F0E89C45F019
:01014C002290
:1001F50002014DE493A3F8E493A34003F68001F2D2
:1002050008DFF48029E493A3F85407240CC8C3330A
:10021500C4540F4420C8834004F456800146F6DFD9
:10022500E4800B01020408102040809005C3E47EA1
:10023500019360BCA3FF543F30E509541FFEE493CE
:10024500A360010ECF54C025E060A840B8E493A395
:10025500FAE493A3F8E493A3C8C582C8CAC583CAC0
:10026500F0A3C8C582C8CAC583CADFE9DEE780BE78
:0105CC00002E
:00000001FF
